S017000070726F6A6563745F7175616E74756D2E73726563AC
S214010094972109009381C16F1701FF03130141F6EC
S2140100A4138501B817B61000130646B13306A640E9
S2140100B493050000EFE0403C17E5000013054536C4
S2140100C4EFD0D006EFE0C02B1305000093054100E6
S2140100D413060000EF4000606FD0900637250A0033
S2140100E437270A009307C5F81307C7F8630AF7000A
S2140100F493070000638607001305C5F867800700A9
S2140101046780000037250A009307C5F837270A00D9
S2140101149305C7F8B385F54093D7254093D5F501E4
S214010124B385F50093D51540638A0500930700004F
S214010134638607001305C5F867800700678000001B
S214010144130101FF2324810083C701C12326110063
S21401015463940702EFF09FF893070000638A070091
S21401016437250A001305858D97000000E700000077
S214010174930710002388F1C08320C1000324810063
S21401018413010101678000009307000063860702DC
S21401019437250A00130101FF938541C11305858D97
S2140101A42326110097000000E70000008320C10009
S2140101B4130101016FF01FF56FF0DFF4B73720FF6D
S2140101C41307800023A0E70423A0070493870704EA
S2140101D49305A000138707003736CA901306063026
S2140101E46F00C0009385F5FF6384050493068000C1
S2140101F48347670093F7F70FE38C07FE2324C700B2
S2140102042326C7009386F6FFE39406FE9306800032
S2140102148347670093F7F70FE38C07FE2324070051
S214010224232607009386F6FFE39406FE6FF09FFBF2
S214010234678000006382050413070000930700002B
S214010244B7260A0003A606F983A646F92324E50081
S2140102542326F50013070000930700002328E50072
S214010264232AF500232CC500232ED5002320E502DE
S2140102742322F50267800000B7270A0003A707F9BF
S21401028483A747F913060000930600006FF01FFCCE
S214010294130101FB23261104232481042322910440
S2140102A423202105232E3103232C4103232A510322
S2140102B42328610323267103232481032322910324
S2140102C42320A103232EB101130C0500032B850063
S2140102D4832BC500032A0501832A450103298501C9
S2140102E48329C501032405028324450213060B0052
S2140102F493860B0013050B0093850B00EFB0904615
S214010304130D0500938C050013060A0093860A0054
S21401031413050A0093850A00EFB0D04413060500BE
S2140103249386050013050D0093850C00EFA0801F2E
S214010334930C05002326B1001306090093860900D1
S2140103441305090093850900EFB0D041930D05000C
S214010354138D050013060400938604001305040098
S21401036493850400EFB0104013060500938605003C
S21401037413850D0093050D00EFA0C01A13060500A2
S2140103849386050013850C008325C100EFA0801910
S214010394EF50D060130D0500938C0500130605007D
S2140103A49386050013050B0093850B00EFA090724E
S2140103B42324AC002326BC0013060D0093860C00F0
S2140103C413050A0093850A00EFA0D0702328AC0019
S2140103D4232ABC0013060D0093860C00130509009E
S2140103E493850900EFA0106F232CAC00232EBC00CC
S2140103F413060D0093860C00130504009385040070
S214010404EFA0506D2320AC022322BC028320C1043A
S2140104140324810483244104032901048329C10399
S214010424032A8103832A4103032B0103832BC1027D
S214010434032C8102832C4102032D0102832DC10169
S2140104441301010567800000130101FE232E11002C
S21401045403270502832745022320E1002322F10016
S214010464032885018328C501032705018327450140
S214010474032685008326C50037A50200130505A9B2
S214010484EFD0101C8320C101130101026780000014
S214010494130101FE232E1100232C8100232A91002F
S2140104A42328210123263101930406001384060020
S2140104B41306050093860500EFB0D02A93090500BC
S2140104C413890500138604009306040013850400AB
S2140104D493050400EFB01029130605009386050062
S2140104E41385090093050900EFA0C0038320C10109
S2140104F40324810183244101032901018329C100C5
S2140105041301010267800000130101FD2326110275
S214010514232481022322910223202103232E310145
S214010524232C4101232A5101232861012326710129
S21401053423248101130C05000326050183264501A6
S214010544032585008325CC00EFF09FF4930B05006B
S214010554138B05001304803E130A00009304000065
S214010564B72A0000938A0A7103A9818083A9C180EE
S2140105746F000001130A1A001304F4FF630E040249
S214010584EFD0C03F33655503EFD04026130609006C
S21401059493860900EFA01054130605009386050000
S2140105A413850B0093050B00EFB0C07AE354A0FC4F
S2140105B4938414006FF05FFC63429A0813070000EB
S2140105C493070000B7260A0003A606F983A646F990
S2140105D42324EC002326FC001307000093070000E5
S2140105E42328EC00232AFC00232CCC00232EDC0039
S2140105F42320EC022322FC0213060A00938504003E
S21401060437A50200130505AAEFD090038320C10283
S2140106140324810283244102032901028329C1019F
S214010624032A8101832A4101032B0101832BC10083
S214010634032C81001301010367800000B7270A0019
S21401064403A707F983A747F91306000093060000DA
S2140106546FF01FF8130101FB2326110423248104E0
S2140106642322910423202105232E3103232C410325
S214010674232A510323286103232671032324810398
S214010684232291032320A103232EB101130C050079
S214010694032A8500832AC500032B8501832BC50104
S2140106A413060B0093860B0013050A0093850A00B4
S2140106B4EF90506703A6018183A64181EFB0900AAB
S2140106C4130D0500938C050003240C0183244C01AF
S2140106D403290C0283294C02130609009386090098
S2140106E41305040093850400EF90D06303A60181EB
S2140106F483A64181EFB010072324AC0123269C0175
S2140107042324A1002326B1002328AC00232ABC00FD
S21401071413060B0093860B0013050A0093850A0043
S214010724EFC0C00F03A6018183A64181EFB09003F9
S214010734232CAC00232EBC00130609009386090063
S2140107441305040093850400EFC0400D03A6018140
S21401075483A64181EFB010012320AC022322BC0200
S21401076483270C009387F7FF13942700138901C38B
S21401077493975700B304F90013060D0093860C00F3
S21401078413050D0093850C00EFB0C07D130A050018
S2140107949389050003278100130607008327C100F8
S2140107A4938607001305070093850700EFB0807B47
S2140107B4130605009386050013050A0093850900B0
S2140107C4EF90505623A0A40023A2B40003258C0165
S2140107D48325CC01032A0C02832A4C021304140039
S2140107E413143400330489001306050093860500A8
S2140107F4EFB04077130905009384050013060A0039
S21401080493860A0013050A0093850A00EFB08075E3
S2140108141306050093860500130509009385040055
S214010824EF9050502320A4002322B4008320C10457
S2140108340324810483244104032901048329C10375
S214010844032A8103832A4103032B0103832BC10259
S214010854032C8102832C4102032D0102832DC10145
S2140108641301010567800000032805028328450259
S214010874032685008326C500032705018327450132
S214010884032385018323C5012324650023267500DC
S21401089423280501232A1501232CC500232ED50060
S2140108A42320E5022322F50267800000130101FBE1
S2140108B423261104232481042322910423202105C1
S2140108C4232E3103232C4103232A510323286103B6
S2140108D42326710323248103232291032320A103C6
S2140108E4232EB101130C05001384050003A585000E
S2140108F483A5C500032904018329440113060500C1
S21401090493860500EFB00066130A0500938405007C
S2140109141306090093860900130509009385090047
S214010924EFB04064130605009386050013050A001C
S21401093493850400EF90103F930D0500138D050079
S214010944032584018325C40103290402832944025F
S2140109541306050093860500EFB0C06093040500F6
S214010964138405001306090093860900130509007C
S21401097493850900EFB0005F130605009386050012
S2140109841385040093050400EF90D039930C0500F9
S2140109942322B100032A8C00832ACC00032B8C016A
S2140109A4832BCC0103240C0183244C0103290C0260
S2140109B483294C0213860D0093060D0013050A00C5
S2140109C493850A00EFB0005A2324A1002326B10020
S2140109D413860C008326410013050B0093850B0038
S2140109E4EFB04058130605009386050003258100E1
S2140109F48325C100EF9010332324AC002326BC00CA
S214010A0413860D0093060D00130504009385040058
S214010A14EFB040552324A1002326B10013860C0011
S214010A24832641001305090093850900EFB080531E
S214010A341306050093860500032581008325C1005E
S214010A44EF90502E2328AC00232ABC0013860D00F9
S214010A5493060D0013050B0093850B00EFB0805031
S214010A64130B0500938B050013860C0083264100A7
S214010A7413050A0093850A00EFB0C04E130605005D
S214010A849386050013050B0093850B00EF909029C0
S214010A94232CAC00232EBC0013860D0093060D00F8
S214010AA41305090093850900EFB0C04B93090500AF
S214010AB41389050013860C008326410013050400E0
S214010AC493850400EFB0004A1306050093860500DB
S214010AD41385090093050900EF90D0242320AC0266
S214010AE42322BC0213050C00EFF08FFA8320C10405
S214010AF40324810483244104032901048329C103B3
S214010B04032A8103832A4103032B0103832BC10296
S214010B14032C8102832C4102032D0102832DC10182
S214010B241301010567800000130101FD232611024C
S214010B34232481022322910223202103232E31011F
S214010B44232C4101232A5101232861012326710103
S214010B5423248101232291012320A10113040500EA
S214010B6413850500EFC0904813060500938605001B
S214010B7403A5818183A5C181EF5080491306050031
S214010B849386050003A5018283A54182EFA08074A4
S214010B94130A050093890500EF50D03113090500A7
S214010BA49384050013050A0093850900EF5010414C
S214010BB4130C050093890500032B8401832BC401C0
S214010BC4032A0402832A44021306090093860400B6
S214010BD413050B0093850B00EFB0C038130D050009
S214010BE4938C050013060C009386090013050A006E
S214010BF493850A00EFB000371306050093860500B7
S214010C0413050D0093850C00EFB05041232CA4006E
S214010C14232EB40013060C009386090013050B005B
S214010C2493850B00EFB00034130B05009389050080
S214010C34130609009386040013050A0093850A0027
S214010C44EFB04032130605009386050013050B002A
S214010C5493850900EF90100D2320A4022322B402E9
S214010C648320C10203248102832441020329010251
S214010C748329C101032A8101832A4101032B01012E
S214010C84832BC100032C8100832C4100032D01001A
S214010C941301010367800000130101FA232E1104D6
S214010CA4232C8104232A9104232821052326310594
S214010CB4232441052322510523206105232E710394
S214010CC4232C8103232A91032328A1032326B1037A
S214010CD4130C0500138405009304060003A5850080
S214010CE483A5C500032A0401832A440113060500CB
S214010CF493860500EFB000279309050013890500C4
S214010D0413060A0093860A0013050A0093850A004F
S214010D14EFB04025130605009386050013850900E8
S214010D2493050900EF901000930C05002322B100EF
S214010D34032584018325C40103290402832944026B
S214010D441306050093860500EFB0C021130A0500BB
S214010D541384050013060900938609001305090088
S214010D6493850900EFB0002013060500938605005D
S214010D7413050A0093050400EF90C07A930D05004D
S214010D84138D0500032B8C00832BCC00032A0C0146
S214010D94832A4C0113850400EFC050251306050071
S214010DA49386050003A5818183A5C181EF50402662
S214010DB4130605009386050003A5018283A54182D7
S214010DC4EFA040511304050093840500EF50900EE4
S214010DD42324A1002326B1001305040093850400EF
S214010DE4EF50D01D2328A100232AB10003298C012A
S214010DF48329CC0103240C0283244C0213860C00A1
S214010E048326410013050B0093850B00EFB0801574
S214010E14232CA100232EB10013860D0093060D008A
S214010E2413050B0093850B00EFB0C01313060500E2
S214010E3493860500032581018325C101EF90806E09
S214010E442324AC002326BC0013860C008326410011
S214010E5413050A0093850A00EFB0C010130B0500B2
S214010E64938B050013860D0093060D0013050A00E7
S214010E7493850A00EFB0000F13060500938605005C
S214010E8413050B0093850B00EF90C0692328AC0073
S214010E94232ABC00032681008326C100130509000A
S214010EA493850900EFB0000C130A0500938A050028
S214010EB403260101832B410193860B0013050400CD
S214010EC493850400EFB0000A130605009386050017
S214010ED413050A0093850A00EFB0501413860D001B
S214010EE493060D00EFB00008130A0500938A050067
S214010EF413860C00032B410093060B00130509000F
S214010F0493850900EFB000061306050093860500D5
S214010F1413050A0093850A00EF90C060232CAC00E9
S214010F24232EBC000326010193860B00130509003A
S214010F3493850900EFB000039309050013890500A2
S214010F44032681008326C10013050400938504004B
S214010F54EFB04001130605009386050013850900CA
S214010F6493050900EF90005C13860D0093060D00AF
S214010F74EFA0507F930905001389050013860C0022
S214010F8493060B001305040093850400EFA0907DDF
S214010F9413060500938605001385090093050900C9
S214010FA4EF9040582320AC022322BC0213050C0008
S214010FB4EFF00FAE8320C105032481058324410588
S214010FC4032901058329C104032A8104832A4104D0
S214010FD4032B0104832BC103032C8103832C4103BC
S214010FE4032D0103832DC10213010106678000004E
S214010FF4130101FB232681042324910423222105C2
S21401100423203105232E4103232C5103232A610374
S214011014032F0500832E4500032E85000323C500F8
S2140110248328050103284501032685018326C50176
S214011034032705028327450283AA450003AA8500E0
S21401104483A9C50003A9050183A4450103A4850159
S21401105483A3C50183A2050283AF450203AB050042
S2140110642320650123225501232445012326350126
S21401107423282501232A9500232C8500232E750079
S214011084232055022322F50323A0E50123A2D5013B
S21401109423A4C50123A6650023A8150123AA0501D7
S2140110A423ACC50023AED50023A0E50223A2F50296
S2140110B40324C104832481040329410483290104EC
S2140110C4032AC103832A8103032B41031301010568
S2140110D467800000130101FE232E1100232C8100DA
S2140110E4232A91002328210123263101930905008F
S2140110F4138405009304060013890600EFF08FD5C8
S214011104130620009305040013850900EFF0DFB8E9
S214011114130630009385040013850900EFF0DFB74A
S214011124130640009305090013850900EFF0DFB6A6
S21401113413050400EFF00FD2130620009385040074
S21401114413050400EFF05FB513063000930509009C
S21401115413050400EFF05FB413850400EFF08FCF9E
S214011164130620009305090013850400EFF0DFB28F
S21401117413050900EFF00FCE930509001385090046
S214011184EFF01FE79385040013050400EFF05FE614
S2140111948320C10103248101832441010329010120
S2140111A48329C1001301010267800000130101F7BE
S2140111B423261108232481082322910823202109A8
S2140111C4232E3107232C4107232A5107232861079D
S2140111D42326710723248107232291072320A107AD
S2140111E4232EB105930D0500138D0500930C0600FF
S2140111F4138C06000325850183A5CD0103A40D02E6
S21401120483A44D0203298D008329CD00032B0D01F0
S214011214832B4D0183278D010328CD012320F10063
S2140112242322010103270D0283274D022324E10013
S2140112342326F100832686000327C6002328D1002F
S214011244232AE1000326060183A64C01232CC100B0
S214011254232ED10003A88C0183A8CC0123200103EB
S2140112642322110303A30C0283A34C022324610249
S21401127423267102032E8C00832ECC002328C1035F
S214011284232AD103832E0C01032F4C01232CD103D3
S214011294232EE103032F8C01832FCC012320E105A8
S2140112A42322F105032A0C02832A4C0213060500A5
S2140112B493860500EFA0104B2324A1042326B10432
S2140112C413060400938604001305040093850400A2
S2140112D4EFA05049130605009386050003258104F3
S2140112E48325C104EF900024938F01C323A4AF0088
S2140112F423A6BF00130609009386090013050900F7
S21401130493850900EFA01046930405001384050095
S21401131413060B0093860B0013050B0093850B0035
S214011324EFA05044130605009386050013850400B8
S21401133493050400EF90001F938801C323A8A80017
S21401134423AAB800032501008325410013060500DE
S21401135493860500EFA0104193040500138405004D
S214011364032581008325C100130605009386050025
S214011374EFA0503F1306050093860500138504006D
S21401138493050400EF90001A938701C323ACA700CA
S21401139423AEB70003250101832541011306050089
S2140113A493860500EFA0103C930405001384050002
S2140113B4032581018325C1011306050093860500D3
S2140113C4EFA0503A13060500938605001385040022
S2140113D493050400EF900015938701C323A0A70289
S2140113E423A2B70203250102832541021306050041
S2140113F493860500EFA010379304050013840500B7
S214011404032581028325C102130605009386050080
S214011414EFA05035130605009386050013850400D6
S21401142493050400EF900010938701C323A4A70239
S21401143423A6B702032501038325410313060500EA
S21401144493860500EFA0103293040500138405006B
S214011454032581038325C10313060500938605002E
S214011464EFA050301306050093860500138504008B
S21401147493050400EF90000B938701C323A8A702EA
S21401148423AAB70203250104832541041306050094
S21401149493860500EFA0102D930405001384050020
S2140114A413060A0093860A0013050A0093850A00A8
S2140114B4EFA0502B13060500938605001385040040
S2140114C493050400EF900006138701C3232CA7029B
S2140114D4232EB70203AB8D0083ABCD0003A50D010C
S2140114E483A54D011306050093860500EFA09027FA
S2140114F42320A1002324B100032A8D00832ACD00D2
S21401150403250D0183254D01130605009386050069
S214011514EFA050252328A100232CB10003A98C0099
S21401152483A9CC0003A40C0183A44C0113060B006D
S21401153493860B0013050B0093850B00EFA09022F6
S2140115440326010083268100EF80D07D130B05005E
S214011554938B050013060A0093860A0013050A00F6
S21401156493850A00EFA0102003260101832681013A
S214011574EF80507B130605009386050013050B00C8
S21401158493850B00EFA0101E130A0500938A05002D
S21401159413060900938609001305090093850900BB
S2140115A4EFA0501C930905001389050013060400D7
S2140115B4938604001305040093850400EFA0901A93
S2140115C41306050093860500138509009305090093
S2140115D4EF805075130605009386050013050A006F
S2140115E493850A00EFA010189309050013890500D6
S2140115F403248C008324CC0003250C0183254C0191
S2140116041306050093860500EFA0D015130B0500FD
S214011614938B050013060400938604001305040047
S21401162493850400EFA0101413060B0093860B0099
S214011634EF80506F1386090093060900EFA09012FD
S214011644138701C32320A7002322B70003258C0197
S2140116548325CC0103240C0283244C0213060500C3
S21401166493860500EFA01010130A0500938A05005F
S21401167413060400938604001305040093850400EE
S214011684EFA0500E130605009386050013050A0005
S21401169493850A00EF8010692328A102130605002A
S2140116A4232CB102938605001385090093050900CE
S2140116B4EFA0500B138701C32324A7002326B700EA
S2140116C403AA8D0083AACD0003298D008329CD00AA
S2140116D403A58C0183A5CC0103A40C0283A44C02AC
S2140116E41306050093860500EFA0D0072320A10268
S2140116F42324B10213060400938604001305040090
S21401170493850400EFA010061306050093860500D2
S2140117140325010283258102EF80D0602320A102E4
S2140117242324B10203248C008324CC0013060A006C
S21401173493860A0013050A0093850A00EFA0900217
S2140117440326010083268100EF80D05D130A05007D
S214011754938A0500130609009386090013050900F8
S21401176493850900EFA01000032601018326810159
S214011774EF80505B130605009386050013050A00E7
S21401178493850A00EFA0007E0326010283268102C8
S214011794EFA0407D13090500938905001306040094
S2140117A4938604001305040093850400EFA0807B50
S2140117B413060B0093860B00EF80D0561306050024
S2140117C4938605001305090093850900EFA0807927
S2140117D4138701C32328A700232AB70003A58D0076
S2140117E483A5CD0003AA0D0183AA4D0103298D000B
S2140117F48329CD0003240D0183244D01130605001E
S21401180493860500EFA00076130B0500938B050065
S21401181413060A0093860A0013050A0093850A0034
S214011824EFA04074130605009386050013050B000C
S21401183493850B00EF80104F130A0500938A050069
S2140118441306090093860900130509009385090008
S214011854EFA04071930905001389050013060400DF
S214011864938604001305040093850400EFA0806F9B
S21401187413060500938605001385090093050900E0
S214011884EF80504A130605009386050013050A00E7
S21401189493850A00EFA0006D0326010283268102C8
S2140118A4EFA0406C0326010383268103EFA0806B1F
S2140118B4138701C3232CA700232EB70003A58D008D
S2140118C483A5CD0003AB0D0183AB4D01032A8D0126
S2140118D4832ACD0103290D0283294D0203A48C001A
S2140118E483A4CC0083A70C0103A84C012320F10098
S2140118F42322010103278C008327CC002324E10043
S2140119042326F10083260C0103274C012328D1004A
S214011914232AE1001306050093860500EFA08064E0
S214011924232CA1002320B10213060B0093860B007F
S21401193413050B0093850B00EFA0C0621306050088
S214011944938605000325810183250102EF80903DDE
S214011954130B0500938B050013060A0093860A00F1
S21401196413050A0093850A00EFA0C05F130A050059
S214011974938A0500130609009386090013050900D6
S21401198493850900EFA0005E130605009386050003
S21401199413050A0093850A00EF80D0381306050064
S2140119A49386050013050B0093850B00EFA0805B5F
S2140119B413090500938905001306040093860400A1
S2140119C41305040093850400EFA0C0599304050091
S2140119D41384050003250100832541001306050031
S2140119E493860500EFA000581306050093860500AC
S2140119F41385040093050400EF80D0321306050016
S214011A04938605001305090093850900EFA0805508
S214011A149304050013840500032581008325C10072
S214011A241306050093860500EFA0C053930905002D
S214011A3413890500032501018325410113060500C9
S214011A4493860500EFA00052130605009386050051
S214011A541385090093050900EF80D02C13060500B1
S214011A64938605001385040093050400EFA0804FB8
S214011A74138701C32320A7022322B70203A58D00DF
S214011A8483A5CD0003AB0D0183AB4D01032A8D0164
S214011A94832ACD0103290D0283294D0203A48C0058
S214011AA483A4CC0083A70C0103A84C012320F100D6
S214011AB42322010103278C018327CC012324E1007F
S214011AC42326F10083260C0203274C022328D10087
S214011AD4232AE1001306050093860500EFA080483B
S214011AE4232CA1002320B10213060B0093860B00BE
S214011AF413050B0093850B00EFA0C04613060500E3
S214011B04938605000325810183250102EF80902138
S214011B14130B0500938B050013060A0093860A002F
S214011B2413050A0093850A00EFA0C043130A0500B3
S214011B34938A050013060900938609001305090014
S214011B4493850900EFA0004213060500938605005D
S214011B5413050A0093850A00EF80D01C13060500BE
S214011B649386050013050B0093850B00EFA0803FB9
S214011B7413090500938905001306040093860400DF
S214011B841305040093850400EFA0C03D93040500EB
S214011B94138405000325010083254100130605006F
S214011BA493860500EFA0003C130605009386050006
S214011BB41385040093050400EF80D0161306050070
S214011BC4938605001305090093850900EFA0803963
S214011BD49304050013840500032581008325C100B1
S214011BE41306050093860500EFA0C0379309050088
S214011BF41389050003250101832541011306050008
S214011C0493860500EFA000361306050093860500AB
S214011C141385090093050900EF80D010130605000B
S214011C24938605001385040093050400EFA0803312
S214011C34138701C32324A7022326B70203A58D0015
S214011C4483A5CD0003AB0D0183AB4D01032A8D01A2
S214011C54832ACD0103290D0283294D0203A48C0195
S214011C6483A4CC0183A70C0203A84C022320F10011
S214011C742322010103278C008327CC002324E100BF
S214011C842326F10083260C0103274C012328D100C7
S214011C94232AE1001306050093860500EFA0802C95
S214011CA4232CA1002320B10213060B0093860B00FC
S214011CB413050B0093850B00EFA0C02A130605003D
S214011CC4938605000325810183250102EF80900593
S214011CD4130B0500938B050013060A0093860A006E
S214011CE413050A0093850A00EFA0C027130A05000E
S214011CF4938A050013060900938609001305090053
S214011D0493850900EFA000261306050093860500B7
S214011D1413050A0093850A00EF80D0001306050018
S214011D249386050013050B0093850B00EFA0802313
S214011D34130905009389050013060400938604001D
S214011D441305040093850400EFA0C0219304050045
S214011D5413840500032501008325410013060500AD
S214011D6493860500EFA00020130605009386050060
S214011D741385040093050400EF80C07A130605005A
S214011D84938605001305090093850900EFA0801DBD
S214011D949304050013840500032581008325C100EF
S214011DA41306050093860500EFA0C01B93090500E2
S214011DB41389050003250101832541011306050046
S214011DC493860500EFA0001A130605009386050006
S214011DD41385090093050900EF80C07413060500F6
S214011DE4938605001385040093050400EFA080176D
S214011DF4138701C32328A702232AB70203A58D004C
S214011E0483A5CD0003AB0D0183AB4D01032A8D01E0
S214011E14832ACD0103290D0283294D0203A48C01D3
S214011E2483A4CC0183A70C0203A84C022320F1004F
S214011E342322010103278C018327CC012324E100FB
S214011E442326F10083260C0203274C022328D10003
S214011E54232AE1001306050093860500EFA08010EF
S214011E64232CA1002320B10213060B0093860B003A
S214011E7413050B0093850B00EFA0C00E1306050097
S214011E84938605000325810183250102EF8080697D
S214011E94130B0500938B050013060A0093860A00AC
S214011EA413050A0093850A00EFA0C00B130A050068
S214011EB4938A050013060900938609001305090091
S214011EC493850900EFA0000A130605009386050012
S214011ED413050A0093850A00EF80C0641306050003
S214011EE49386050013050B0093850B00EFA080076E
S214011EF4130905009389050013060400938604005C
S214011F041305040093850400EFA0C005930405009F
S214011F1413840500032501008325410013060500EB
S214011F2493860500EFA000041306050093860500BA
S214011F341385040093050400EF80C05E13060500B4
S214011F44938605001305090093850900EFA0800117
S214011F549304050013840500032581008325C1002D
S214011F641306050093860500EF90D07F93090500BC
S214011F741389050003250101832541011306050084
S214011F8493860500EF90107E1306050093860500E0
S214011F941385090093050900EF80C0581306050050
S214011FA4938605001385040093050400EF90907B47
S214011FB4138701C3232CA702232EB70203A58D0181
S214011FC483A5CD0103AB0D0283AB4D02032A8D001D
S214011FD4832ACD0003290D0183294D0103A48C0016
S214011FE483A4CC0083A70C0103A84C012320F10091
S214011FF42322010103278C008327CC002324E1003C
S2140120042326F10083260C0103274C012328D10043
S214012014232AE1001306050093860500EF909074C9
S214012024232CA1002320B10213060B0093860B0078
S21401203413050B0093850B00EF90D0721306050071
S214012044938605000325810183250102EF80804DD7
S214012054130B0500938B050013060A0093860A00EA
S21401206413050A0093850A00EF90D06F130A050042
S214012074938A0500130609009386090013050900CF
S21401208493850900EF90106E1306050093860500EC
S21401209413050A0093850A00EF80C048130605005D
S2140120A49386050013050B0093850B00EF90906B48
S2140120B4130905009389050013060400938604009A
S2140120C41305040093850400EF90D069930405007A
S2140120D4138405000325010083254100130605002A
S2140120E493860500EF901068130605009386050095
S2140120F41385040093050400EF80C042130605000F
S214012104938605001305090093850900EF909065F1
S2140121149304050013840500032581008325C1006B
S2140121241306050093860500EF90D0639309050016
S21401213413890500032501018325410113060500C2
S21401214493860500EF90106213060500938605003A
S2140121541385090093050900EF80C03C13060500AA
S214012164938605001385040093050400EF90905FA1
S214012174138701C32320A7042322B70403A58D01D3
S21401218483A5CD0103AB0D0283AB4D02032A8D005B
S214012194832ACD0003290D0183294D0103A48C0054
S2140121A483A4CC0083A70C0103A84C012320F100CF
S2140121B42322010103278C018327CC012324E10078
S2140121C42326F10083260C0203274C022328D10080
S2140121D4232AE1001306050093860500EF90905824
S2140121E4232CA1002320B10213060B0093860B00B7
S2140121F413050B0093850B00EF90D05613060500CC
S214012204938605000325810183250102EF80803131
S214012214130B0500938B050013060A0093860A0028
S21401222413050A0093850A00EF90D053130A05009C
S214012234938A05001306090093860900130509000D
S21401224493850900EF901052130605009386050046
S21401225413050A0093850A00EF80C02C13060500B7
S2140122649386050013050B0093850B00EF90904FA2
S21401227413090500938905001306040093860400D8
S2140122841305040093850400EF90D04D93040500D4
S2140122941384050003250100832541001306050068
S2140122A493860500EF90104C1306050093860500EF
S2140122B41385040093050400EF80C0261306050069
S2140122C4938605001305090093850900EF9090494C
S2140122D49304050013840500032581008325C100AA
S2140122E41306050093860500EF90D0479309050071
S2140122F41389050003250101832541011306050001
S21401230493860500EF901046130605009386050094
S2140123141385090093050900EF80C0201306050004
S214012324938605001385040093050400EF909043FB
S214012334138701C32324A7042326B70403A58D0109
S21401234483A5CD0103AB0D0283AB4D02032A8D0099
S214012354832ACD0003290D0183294D0103A48C0191
S21401236483A4CC0183A70C0203A84C022320F1000A
S2140123742322010103278C008327CC002324E100B8
S2140123842326F10083260C0103274C012328D100C0
S214012394232AE1001306050093860500EF90903C7E
S2140123A4232CA1002320B10213060B0093860B00F5
S2140123B413050B0093850B00EF90D03A1306050026
S2140123C4938605000325810183250102EF8080158C
S2140123D4130B0500938B050013060A0093860A0067
S2140123E413050A0093850A00EF90D037130A0500F7
S2140123F4938A05001306090093860900130509004C
S21401240493850900EF9010361306050093860500A0
S21401241413050A0093850A00EF80C0101306050011
S2140124249386050013050B0093850B00EF909033FC
S2140124341309050093890500130604009386040016
S2140124441305040093850400EF90D031930405002E
S21401245413840500032501008325410013060500A6
S21401246493860500EF901030130605009386050049
S2140124741385040093050400EF80C00A13060500C3
S214012484938605001305090093850900EF90902DA6
S2140124949304050013840500032581008325C100E8
S2140124A41306050093860500EF90D02B93090500CB
S2140124B4138905000325010183254101130605003F
S2140124C493860500EF90102A1306050093860500EF
S2140124D41385090093050900EF80C004130605005F
S2140124E4938605001385040093050400EF90902756
S2140124F4138701C32328A704232AB70403A58D0140
S21401250483A5CD0103AB0D0283AB4D02032A8D00D7
S214012514832ACD0003290D0183294D0103A48C01CF
S21401252483A4CC0183A70C0203A84C022320F10048
S2140125342322010103278C018327CC012324E100F4
S2140125442326F10083260C0203274C022328D100FC
S214012554232AE1001306050093860500EF909020D8
S214012564232CA1002320B10213060B0093860B0033
S21401257413050B0093850B00EF90D01E1306050080
S214012584938605000325810183250102EF70907966
S214012594130B0500938B050013060A0093860A00A5
S2140125A413050A0093850A00EF90D01B130A050051
S2140125B4938A05001306090093860900130509008A
S2140125C493850900EF90101A1306050093860500FB
S2140125D413050A0093850A00EF70D07413060500EC
S2140125E49386050013050B0093850B00EF90901757
S2140125F41309050093890500130604009386040055
S2140126041305040093850400EF90D0159304050088
S21401261413840500032501008325410013060500E4
S21401262493860500EF9010141306050093860500A3
S2140126341385040093050400EF70D06E130605009D
S214012644938605001305090093850900EF90901100
S2140126549304050013840500032581008325C10026
S2140126641306050093860500EF90D00F9309050025
S214012674138905000325010183254101130605007D
S21401268493860500EF90100E130605009386050049
S2140126941385090093050900EF70D0681306050039
S2140126A4938605001385040093050400EF90900BB0
S2140126B4138701C3232CA704232EB70403A58D0176
S2140126C483A5CD0103AB0D0283AB4D02032A8D0115
S2140126D4832ACD0103290D0283294D0203A48C000C
S2140126E483A4CC0083A70C0103A84C012320F1008A
S2140126F42322010103278C008327CC002324E10035
S2140127042326F10083260C0103274C012328D1003C
S214012714232AE1001306050093860500EF90900432
S214012724232CA1002320B10213060B0093860B0071
S21401273413050B0093850B00EF90D00213060500DA
S214012744938605000325810183250102EF70905DC0
S214012754130B0500938B050013060A0093860A00E3
S21401276413050A0093850A00EF90C07F130A05003B
S214012774938A0500130609009386090013050900C8
S21401278493850900EF90007E1306050093860500E5
S21401279413050A0093850A00EF70D0581306050046
S2140127A49386050013050B0093850B00EF90807B41
S2140127B41309050093890500130604009386040093
S2140127C41305040093850400EF90C0799304050073
S2140127D41384050003250100832541001306050023
S2140127E493860500EF90007813060500938605008E
S2140127F41385040093050400EF70D05213060500F8
S214012804938605001305090093850900EF908075EA
S2140128149304050013840500032581008325C10064
S2140128241306050093860500EF90C073930905000F
S21401283413890500032501018325410113060500BB
S21401284493860500EF900072130605009386050033
S2140128541385090093050900EF70D04C1306050093
S214012864938605001385040093050400EF90806F9A
S214012874938701C323A0A70623A2B70603A58D0148
S21401288483A5CD0103AB0D0283AB4D02032A8D0153
S214012894832ACD0103290D0283294D0203A48C004A
S2140128A483A4CC0083A70C0103A84C012320F100C8
S2140128B42322010103278C018327CC012324E10071
S2140128C42326F10083260C0203274C022328D10079
S2140128D4232AE100138801C3232C010113060500F2
S2140128E493860500EF9000682320A1022324B102F9
S2140128F413060B0093860B0013050B0093850B0040
S214012904EF90406613060500938605000325010231
S21401291483258102EF701041130B0500938B05008C
S21401292413060A0093860A0013050A0093850A0013
S214012934EF904063130A0500938A05001306090005
S214012944938609001305090093850900EF908061B9
S214012954130605009386050013050A0093850A00ED
S214012964EF70503C130605009386050013050B0013
S21401297493850B00EF90005F13090500938905000A
S21401298413060400938604001305040093850400CB
S214012994EF90405D130405009384050003250100B0
S2140129A4832541001306050093860500EF90805B9E
S2140129B41306050093860500130504009385040099
S2140129C4EF705036130605009386050013050900BB
S2140129D493850900EF9000599304050013840500BC
S2140129E4032581008325C10013060500938605008F
S2140129F4EF9040579309050013890500032501014B
S214012A04832541011306050093860500EF90805542
S214012A14130605009386050013850900930509002E
S214012A24EF705030130605009386050013850400E5
S214012A3493050400EF900053032881012324A8067C
S214012A442326B80603A58D0183A5CD0103AB0D028C
S214012A5483AB4D02032A8D01832ACD0103290D027E
S214012A6483294D0203A48C0183A4CC0183A70C0201
S214012A7403A84C022320F1002322010103278C0022
S214012A848327CC002324E1002326F10083260C01AE
S214012A9403274C012328D100232AE100130605004D
S214012AA493860500EF90004C232CA1002320B1024D
S214012AB413060B0093860B0013050B0093850B007E
S214012AC4EF90404A1306050093860500032581010D
S214012AD483250102EF701025130B0500938B050067
S214012AE413060A0093860A0013050A0093850A0052
S214012AF4EF904047130A0500938A05001306090060
S214012B04938609001305090093850900EF90804513
S214012B14130605009386050013050A0093850A002B
S214012B24EF705020130605009386050013050B006D
S214012B3493850B00EF900043130905009389050064
S214012B441306040093860400130504009385040009
S214012B54EF9040411304050093840500032501000A
S214012B64832541001306050093860500EF90803FF8
S214012B7413060500938605001305040093850400D7
S214012B84EF70501A13060500938605001305090015
S214012B9493850900EF90003D930405001384050016
S214012BA4032581008325C1001306050093860500CD
S214012BB4EF90403B930905001389050003250101A5
S214012BC4832541011306050093860500EF9080399D
S214012BD4130605009386050013850900930509006D
S214012BE4EF70501413060500938605001385040040
S214012BF493050400EF900037138701C32328A70623
S214012C04232AB70603A58D0183A5CD0103AB0D02C7
S214012C1483AB4D02032A8D01832ACD0103290D02BC
S214012C2483294D0203A48C0183A4CC0183A70C023F
S214012C3403A84C022320F10023220101032D8C0159
S214012C44832DCC01832C4C02032C0C0213060500A5
S214012C5493860500EF9000312324A1002328B100B8
S214012C6413060B0093860B0013050B0093850B00CC
S214012C74EF90402F13060500938605000325810077
S214012C8483250101EF70100A130B0500938B0500D1
S214012C9413060A0093860A0013050A0093850A00A0
S214012CA4EF90402C130A0500938A050013060900C9
S214012CB4938609001305090093850900EF90802A7D
S214012CC4130605009386050013050A0093850A007A
S214012CD4EF705005130605009386050013050B00D7
S214012CE493850B00EF9000289309050013890500CE
S214012CF41306040093860400130504009385040058
S214012D04EF90402693040500138405000325010073
S214012D14832541001306050093860500EF90802461
S214012D241306050093860500138504009305040025
S214012D34EF70407F1306050093860500138509008E
S214012D4493050900EF9000229304050013840500FF
S214012D5413060D0093860D0013050D0093850D00D3
S214012D64EF904020930905001389050013060C0013
S214012D7493860C0013050C0093850C00EF90801EBF
S214012D8413060500938605001385090093050900BB
S214012D94EF70407913060500938605001385040039
S214012DA493050400EF90001C138701C3232CA70688
S214012DB4232EB706938901C3938401C31304000029
S214012DC437AA02001309000103A6040083A64400DF
S214012DD4930504001305CAABEFB080061304140070
S214012DE493848400E31224FF138A090813840900D8
S214012DF49304000013090000930509000326040048
S214012E048326440013850400EF70C0719304050003
S214012E1413048400E31444FF138905001384090092
S214012E241386040093060900032504008325440041
S214012E34EF80404A2320A4002322B4001304840014
S214012E44E31044FF9384090013040000B7AA0200A8
S214012E541309000103A6040083A644009305040095
S214012E6413854AADEFA0D07D130414009384840027
S214012E74E31224FF138401CB13050000930500001D
S214012E849307050003A6090083A6490013850700D6
S214012E94EF704069930705002320A4002322B400A1
S214012EA49389890013048400E39E49FD8320C108A5
S214012EB40324810883244108032901088329C107BF
S214012EC4032A8107832A4107032B0107832BC106A3
S214012ED4032C8106832C4106032D0106832DC1058F
S214012EE41301010967800000130101FD2326110265
S214012EF4232481022322910223202103232E31013C
S214012F04232C4101232A510123286101232671011F
S214012F142324810123229101930A803EB72B0000CA
S214012F24938B0B7103A9818083A9C180138B01C381
S214012F34130A00016F0000021314240033048B00EB
S214012F4483270410938717002320F410938AFAFF2B
S214012F54638A0A04EFA0902233657503EFA0100973
S214012F641306090093860900EF80C036930C05000A
S214012F74138C050093040B081304000013860C003D
S214012F8493060C0003A5040083A54400EF80905C1F
S214012F94E344A0FA1304140093848400E31044FF6A
S214012FA46FF0DFFA938401D313040000B7A902007B
S214012FB41309000103A6040093050400138589AFD1
S214012FC4EFA010681304140093844400E31424FF50
S214012FD48320C102032481028324410203290102BE
S214012FE48329C101032A8101832A4101032B01019B
S214012FF4832BC100032C8100832C410013010103A0
S21401300467800000B70600800326C5010323050177
S21401301483234501032885008328C50083254502AB
S21401302403270502B3C7D5002324E5002326F500AC
S21401303403278501B347D6002328E500232AF50094
S214013044232C6500232E7500232005032322150354
S21401305467800000B7060080032645028325C50164
S214013064B3C7D500232EF500B347D6002322F502B5
S21401307467800000B73720FF1307100023A0E7027C
S214013084B73720FF9387C70283A7070093F7170074
S214013094638C0700373720FF1307C702832707000F
S2140130A493F71700E39C07FE6780000083A701BF20
S2140130B49395A500B385F50013151500B385A500F2
S2140130C42390C50067800000130101FD2326110229
S2140130D4232481022322910223202103232E31015A
S2140130E4232C4101232A510123286101232671013E
S2140130F4138B0500930B0600930495FF930A750042
S2140131049389750013090014130AF00E6F00400327
S2140131141304140063C28902E36C99FE9307F4FF57
S214013124E368FAFE13860B00930504001385040076
S214013134EFF0DFF76FF0DFFD9384140063C69A00A7
S21401314413049BFF6FF05FFD8320C10203248102F9
S21401315483244102032901028329C101032A81012F
S214013164832A4101032B0101832BC10013010103AF
S21401317467800000635EE006130101FE232E110042
S214013184232C8100232A910023282101232631019F
S214013194232441012322510193890500130A0600C1
S2140131A4938A06001309070013040500930400001C
S2140131B413060A009385090013050400EFF0DFF0F7
S2140131C49384140033045401E31499FE8320C1014B
S2140131D40324810183244101032901018329C100B8
S2140131E4032A8100832A410013010102678000003B
S2140131F467800000130101FD2326110223248102A6
S2140132042322910223202103232E3101232C410161
S214013214232A51012328610123267101138B0500FA
S214013224930B06009304C5FE930AA50093894500F3
S21401323413090014130AF00E6F004003130414005C
S21401324463C28902E36C99FE9307F4FFE368FAFE0E
S21401325413860B009305040013850400EFF01FE5A5
S2140132646FF0DFFD9384140063C69A001304CBFF4A
S2140132746FF05FFD8320C10203248102832441028F
S214013284032901028329C101032A8101832A4101F9
S214013294032B0101832BC100130101036780000086
S2140132A4130101FD23261102232481022322910204
S2140132B423202103232E3101232C4101232A5101EA
S2140132C423286101232671012324810123229101EC
S2140132D4138A05009309060013840600130C0700DD
S2140132E4B38AB64093D7FA41B3CA5701B38AFA40B0
S2140132F4330BA6409357FB4133CB6701330BFB409B
S214013304634A5B011304060093890600130A050049
S2140133141385050063424409B30C4441B38BA940A9
S21401332493D7FB41B3CB7701B38BFB4093D4FC011A
S214013334B384940193D41440B30490406352350D7E
S2140133449307040013040A00138A0700930905006F
S214013354130910006F00C00213060C0093850900C0
S21401336413050400EFF09FD4B384740163569000F0
S214013374B3892901B38494411304140063488A046D
S214013384E35C5BFD13060C0093050400138509003A
S214013394EFF0DFD16FF05FFDB30C8A40B30B35411C
S2140133A493D7FB41B3CB7701B38BFB4093D4FC019A
S2140133B4B384940193D41440B30490401309F0FFEA
S2140133C4E3D0A9FC13091000E35C8AFA8320C10246
S2140133D40324810283244102032901028329C101B2
S2140133E4032A8101832A4101032B0101832BC10096
S2140133F4032C8100832C4100130101036780000024
S214013404930905009307040013040A00138A0700AE
S2140134141309F0FF6FF05FFB130101FE232E110069
S214013424232C8100232A91002328210123263101FC
S214013434930400001309000F9309001413040000F9
S214013444130600009305040013850400EFF01FC65D
S21401345413041400E31624FF93841400E39034FF4A
S2140134648320C1010324810183244101032901012D
S2140134748329C1001301010267800000939575003A
S214013484B7070009B385F500B385A5002380C500F9
S21401349467800000130101FE232E1100232C8100F6
S2140134A4232A9100232821012326310193040000B5
S2140134B41309C003930900056F00C0009384140028
S2140134C46382340313040000130600029305040008
S2140134D413850400EFF09FFA13041400E31624FF87
S2140134E46FF0DFFD8320C1010324810183244101A0
S2140134F4032901018329C100130101026780000029
S214013504B70720FF03A5C70523AEA70467800000FD
S214013514130101FA232E1104232C8104232A910476
S2140135242328210523263105232441052322510579
S21401353423206105232E7103232C8103232A91035F
S2140135442328A1032326B10393040500138405004D
S2140135542326C1002328D100232AE100232CF100CD
S21401356493090800232E1101930C6500138DE501C0
S214013574930A65031307F0FF9386050013860A0072
S21401358493050D0013850C00EFF09FD1130A640018
S214013594938BC403130C84011307F0FF93060C00EA
S2140135A413860B0093050A0013850400EFF05FCF22
S2140135B41389E401130B6402930D74FF1307F0FFE0
S2140135C493860D001306090093050B0013050900E5
S2140135D4EFF01FCD03A6818283A6C182138509005D
S2140135E48325C101EF809007634C050A03A6018376
S2140135F483A64183138509008325C101EF80807565
S214013604634EA00A03A6818283A6C1820325C10054
S21401361483250101EF8090046340050C03A6018312
S21401362483A641830325C10083250101EF808072AF
S2140136346342A00C03A6818283A6C18203254101AD
S21401364483258101EF8090016344050C03A6018361
S21401365483A641830325410183258101EF80806F81
S2140136646346A00C8320C1050324810583244105F8
S214013674032901058329C104032A8104832A4104F9
S214013684032B0104832BC103032C8103832C4103E5
S214013694032D0103832DC102130101066780000077
S2140136A41307007E93060B00130609009305F40026
S2140136B413050900EFF0DFBE6FF0DFF41307007E99
S2140136C493860D00130609009305F40013050900FB
S2140136D4EFF01FBD6FF01FF31307007E930604007F
S2140136E413860A009305F40013050900EFF05FBB87
S2140136F46FF05FF41307007E93060D0013860C002B
S2140137049305F40013050900EFF09FB96FF09FF2DB
S2140137141307007E93060A00138604009305F4003B
S21401372413050900EFF0DFB76FF0DFF31307007E30
S21401373493060C0013860B009305F4001305090089
S214013744EFF01FB66FF01FF2130101FE232E1100D6
S214013754232C8100232A91002328210123263101C9
S214013764232441012322510137BA0200130A4A369F
S2140137741309000093090014930A000F93040A0026
S21401378413040000039604009305090013050400BE
S214013794EFF0DF911304140093842400E31434FF40
S2140137A413091900130A0A28E31A59FD8320C101D3
S2140137B40324810183244101032901018329C100D2
S2140137C4032A8100832A4100130101026780000055
S2140137D4130101FE232E1100232C8100232A9100BC
S2140137E423282101232631012324410123225101C7
S2140137F4371A0500130A4AB6130900009309001480
S214013804930A000F93040A001304000003960400AD
S2140138149305090013050400EFF05F8913041400EF
S21401382493842400E31434FF13091900130A0A28A5
S214013834E31A59FD8320C101032481018324410134
S214013844032901018329C100032A8100832A410037
S2140138541301010267800000130101FE232E1100EB
S214013864232C8100232A91002328210123263101B8
S214013874232441012322510123206101930A0500D7
S214013884130A060013890500130B261C9309F50079
S21401389413840A0093040A0003960400930509009E
S2140138A413050400EFF09F8093842400130414008E
S2140138B4E31434FF130AEA0113091900E31A6AFD33
S2140138C48320C101032481018324410103290101C9
S2140138D48329C100032A8100832A4100032B0100A6
S2140138E4130101026780000083A741B603A5070000
S2140138F4378700003375E5006300050203A7070058
S2140139041377F70F9306000F130500006306D7001D
S21401391403A507001375F50F6780000093070600DB
S21401392403460600630A0604130101FF2326110059
S21401393423248100232291002320210113890500D9
S21401394413840700B304F540930509003305940076
S214013954EFF0DFB21304140003460400E31606FE78
S2140139648320C1000324810083244100032901002C
S214013974130101016780000067800000130101F153
S2140139842326110E2324810E2322910E2320210F98
S214013994232E310D232C410D232A510D2328610D8D
S2140139A42326710D138401C383250414130581088A
S2140139B4EFC05F888325441413050106EFC09F8773
S2140139C48325841413058103EFC0DF868325C4147D
S2140139D413050101EFC01F8683A7C1BC6352F034EF
S2140139E42324810D2322910D2320A10D232EB10B17
S2140139F4138401C313090415130CC418930BC419B7
S214013A04930A841D93094421130B0425130A0426DF
S214013A141304042793040000930DA007130D9003C9
S214013A24B7A70200938787D12326F1006F0080038E
S214013A3413058108EFC01FC29384140013094900BB
S214013A44130C1C00938B4B00938A4A0093894900FC
S214013A54130B1B00130A1A001304140083A7C1BC1A
S214013A6463D8F42A83270900638A07088347040076
S214013A749387F7FB13F7F70FE360EDFC9317270023
S214013A840327C100B387E70083A707006780070001
S214013A9413058108EFC05FDD6FF01FFA1305810877
S214013AA4EFF04FD66FF05FF913058108EFF08FDA68
S214013AB46FF09FF89305200013058108EFD0CF8699
S214013AC46FF09FF79305400013058108EFD0CF856B
S214013AD46FF09FF69305800013058108EFD0CF841D
S214013AE46FF09FF593060101130681039305010602
S214013AF413058108EFD00FDE6FF01FF483A70900CA
S214013B046386070A83470A00E3E8FDF213072005E4
S214013B146376F7029387D7FA13F7F70F93067002C3
S214013B24E3ECE6F09317270037A70200130707E034
S214013B34B387E70083A7070067800700130710040D
S214013B446386E70413074004E398E7EE93058000D1
S214013B5413050106EFC05FFD6FF01FEE13050106A6
S214013B64EFC05FAF6FF05FED13050106EFC0DFCF67
S214013B746FF09FEC13050106EFF0CFC86FF0DFEB93
S214013B8413050106EFF00FCD6FF01FEB9305200030
S214013B9413050106EFC05FF96FF01FEA93054000B5
S214013BA413050106EFC05FF86FF01FE983A70A004B
S214013BB46386070A83470B00E3E0FDE81307200545
S214013BC46376F7029387D7FA93F6F70F1307700213
S214013BD4E364D7E69397260037A70200130707EA9C
S214013BE4B387E70083A7070067800700130710045D
S214013BF46386E70413074004E390E7E49305800033
S214013C0413058103EFC05FF26FF01FE31305810311
S214013C14EFC05FA46FF05FE213058103EFC0DFC45A
S214013C246FF09FE113058103EFF0CFBD6FF0DFE086
S214013C3413058103EFF00FC26FF01FE09305200018
S214013C4413058103EFC05FEE6FF01FDF930540009D
S214013C5413058103EFC05FED6FF01FDE83A70B0032
S214013C64E38C07DC83470C001307A007E366F7DC45
S214013C74130720056376F7029387D7FA93F6F70FAF
S214013C8413077002E36AD7DA9397260037A7020070
S214013C94130707F4B387E70083A7070067800700C5
S214013CA4130710046386E70413074004E396E7D872
S214013CB49305800013050101EFC01FE76FF0DFD7FE
S214013CC413050101EFC01F996FF01FD713050101FA
S214013CD4EFC09FB96FF05FD613050101EFF08FB205
S214013CE46FF09FD513050101EFF0CFB66FF0DFD467
S214013CF49305200013050101EFC01FE36FF0DFD326
S214013D049305400013050101EFC01FE26FF0DFD2F7
S214013D14032C810C832C410C032D010C832DC10B28
S214013D2483A701B8638807028320C10E0324810E8A
S214013D348324410E0329010E8329C10D032A810D13
S214013D44832A410D032B010D832BC10C1301010F93
S214013D54678000009306010113068103930501069B
S214013D6413058108EFD08FC4EFF00F9813071000E6
S214013D7423A0E1B8032A0109832A4109032B8109F7
S214013D84832BC10913060B0093860B0013050A0047
S214013D9493850A00EFC0CFEFEF204040EF20C01B11
S214013DA41306050093860500EF60C0771309050026
S214013DB41384050013060B0093860B0013050A00F3
S214013DC493850A00EF700051EF200048930905001F
S214013DD4938405000326810A8326C10A0325010A62
S214013DE48325410AEF70004FEF2000461386090031
S214013DF493860400EF809022130B0500938A050036
S214013E041305090093050400EF20501B130A05004F
S214013E149389050013050B0093850A00EF2090098A
S214013E241306050093860500938401C313050A004F
S214013E3493850900EF800013EF90D00823A0A428EF
S214013E4413050B0093850A00EF205017130605008F
S214013E549386050013050A0093850900EF808010F8
S214013E64EF90500623A2A428130509009305040025
S214013E74EF205004EF90100523A4A428032A8106FA
S214013E84832AC106032B0107832B410713060B0064
S214013E9493860B0013050A0093850A00EFC04FDFD3
S214013EA4EF20C02FEF20400B130605009386050074
S214013EB4EF604067130905001384050013060B0021
S214013EC493860B0013050A0093850A00EF70804061
S214013ED4EF208037130A050093890500032601089D
S214013EE483264108032581078325C107EF70803E99
S214013EF4EF20803513060A0093860900EF8010121E
S214013F04130B0500938A05001305090093050400A5
S214013F14EF20D00A130A05009389050013050B0048
S214013F2493850A00EF2000791306050093860500A1
S214013F3413050A0093850900EF80C002EF9080788C
S214013F4423A6A42813050B0093850A00EF20100767
S214013F54130605009386050013050A0093850900D8
S214013F64EF804000EF90007623A8A42813050900EB
S214013F7493050400EF200074EF90C07423AAA428CC
S214013F84032A0104832A4104032B8104832BC104DD
S214013F9413060B0093860B0013050A0093850A008B
S214013FA4EFC00FCFEF20801FEF10107B1306050024
S214013FB493860500EF600057130905001384050076
S214013FC413060B0093860B0013050A0093850A005B
S214013FD4EF704030EF204027130A0500938905004F
S214013FE4032681058326C10503250105832541058D
S214013FF4EF70402EEF20402513060A009386090031
S214014004EF80D001130B0500938A05001305090000
S21401401493050400EF20807A130A050093890500AE
S21401402413050B0093850A00EF20C06813060500EC
S2140140349386050013050A0093850900EF709072B4
S214014044EF90406823ACA42813050B0093850A005F
S214014054EF20C076130605009386050013050A00B3
S21401406493850900EF701070EF90C06523AEA42805
S2140140741305090093050400EF20C063EF908064E4
S21401408423A0A42A032A8101832AC101032B010246
S214014094832B410213060B0093860B0013050A00BB
S2140140A493850A00EFC0CFBEEF20400FEF10D06A11
S2140140B41306050093860500EF60C0461309050044
S2140140C41384050013060B0093860B0013050A00E0
S2140140D493850A00EF700020EF200017130A0500ED
S2140140E493890500032601038326410303258102E0
S2140140F48325C102EF70001EEF20001513060A0087
S21401410493860900EF808071130B0500938A0500DE
S2140141141305090093050400EF20406A130A0500FD
S2140141249389050013050B0093850A00EF20805838
S214014134130605009386050013050A0093850900F6
S214014144EF705062EF90005823A2A42A13050B00C7
S21401415493850A00EF208066130605009386050002
S21401416413050A0093850900EF70D05FEF90805520
S21401417423A4A42A1305090093050400EF20805301
S214014184EF90405423A6A42A138404289384042B72
S21401419437A9020083250400130549B1EF90504A5C
S2140141A413044400E31894FE6FF01FB8130101FED4
S2140141B4232E1100232C8100232A91002328210178
S2140141C423263101232441012322510123206101A5
S2140141D4930A0500138B0600938905001309061933
S2140141E4B75701009387079B330AF600130409E7C0
S2140141F493840A00031604009385090013850400BA
S214014204EFE0DFEA1304240093841400E31424FF8C
S2140142149389190013090919E31A49FDEFF00FF6FA
S21401422493071000630AFB02930720006302FB2432
S2140142348320C1010324810183244101032901014F
S2140142448329C100032A8100832A4100032B01002C
S214014254130101026780000037A60200130686B127
S2140142649305100113051001EFF04FEB37A602007A
S214014274130606B29305300113051001EFF00FEA99
S21401428437A60200130686B29305500113051001E2
S214014294EFF0CFE837A60200130606B393057001C4
S2140142A413051001EFF08FE737A60200130686B355
S2140142B49305900113051001EFF04FE637A60200AF
S2140142C4130606B49305B00113051001EFF00FE5CC
S2140142D437A60200130686B49305D0011305100110
S2140142E4EFF0CFE337A60200130606B59305F001F7
S2140142F413051001EFF08FE237A60200130686B508
S2140143049305100213051001EFF04FE137A60200E2
S214014314130606B69305300213051001EFF00FE0FD
S21401432437A60200130686B693055002130510013C
S214014334EFF0CFDE37A60200130606B79305700228
S21401434413051001EFF08FDD37A60200130686B7BA
S2140143549305900213051001EFF04FDC37A6020017
S214014364130606B89305B00213051001EFF00FDB30
S21401437437A60200130686B89305D002130510016A
S214014384EFF0CFD937A60200130606B99305F0025B
S21401439413051001EFF08FD813090000938901C3A8
S2140143A403A4818383A4C18337AB020037AA020026
S2140143B4930A00029357F901B387270193D717404D
S2140143C493973700B387F900130604009386040015
S2140143D403A5070083A54700EF70D0381306050030
S2140143E49386050093058BB913050AB9EF90D0326D
S2140143F413060AB9930519011305E001EFF00FD26C
S21401440413092900E31859FB13040000938401C31C
S21401441437AA020037A90200930900029357F40150
S214014424B387870093D7174093972700B387F40081
S21401443403A6071093050ABA130509B9EF90D02D00
S214014444130609B9930514011305B002EFF00FCD55
S21401445413042400E31434FD37A60200130606B938
S2140144649305F00213051001EFF04FCB6FF05FDCFC
S214014474138401C303258428EF904037130A0500EB
S2140144849389050003254428EF9040361309050057
S2140144949384050003250428EF9040351306050090
S2140144A49386050013080A00938809001307090078
S2140144B4938704009305B00413056004EFF04F8559
S2140144C403254429EF908032130A050093890500D9
S2140144D403250429EF908031130905009384050010
S2140144E40325C428EF908030130605009386050043
S2140144F413080A0093880900130709009387040028
S2140145049305B0041305C008EFF08F800325042A31
S214014514EF90C02D130A0500938905000325C429CD
S214014524EF90C02C13090500938405000325842904
S214014534EF90C02B130605009386050013080A00A6
S2140145449388090013070900938704009305C0089C
S21401455413056004EFE0DFFB0325C42AEF9000296E
S214014564130A0500938905000325842AEF90002881
S21401457413090500938405000325442AEF900027B8
S214014584130605009386050013080A00938809009C
S21401459413070900938704009305C0081305C00890
S2140145A4EFE01FF76FF0DFC8130101FE232E1100A1
S2140145B4232C8100232A910023282101232631015B
S2140145C4232441012322510123206101930A05007A
S2140145D4938905003769070013092938130A00006F
S2140145E4130B10596F004001130AFA00938919003E
S2140145F41309E90163066A03130429FE93840A0076
S214014604031604009385090013850400EFE01FAA2E
S2140146141304240093841400E31424FF6FF0DFFCD6
S2140146248320C1010324810183244101032901015B
S2140146348329C100032A8100832A4100032B010038
S2140146441301010267800000130101FEB7A70200EF
S214014654938747BA03A8070083A6470003A78700E2
S21401466483A7C70023280101232AD100232CE100B4
S214014674232EF100232401002326010093958500AF
S214014684B3E5C5001315050133E7A50093078100BB
S2140146941306E1009376F70093860602B386260096
S2140146A483C606FF2380D700135747009387170056
S2140146B4E392C7FEB70720FF0327810023A0E70282
S2140146C4B70720FF0327C10023A8E702130101024D
S2140146D467800000130101FA232E1104232C8104A0
S2140146E4232A910423282105232631052324410561
S2140146F42322510523206105232E7103232C8103D4
S214014704232A91032328A1032326B103B70720FFF5
S2140147141307F00F23A4E710130600009306000006
S2140147241305060093850600EFB09FD6EF101027F9
S2140147349304050013840500B7270A0003A607F9A6
S21401474483A647F9EF80106F63100502B7270A00A6
S21401475403A607F983A647F9138504009305040005
S214014764EF70C06F6342A00E03A6018483A6418442
S2140147741385040093050400EF80D06B631E0500C7
S21401478403A6018483A641841385040093050400CB
S214014794EF70405C634A050A373420FFB7F70D0013
S2140147A49387C78C2322F402EFE0DF8CB73720FF10
S2140147B49387070283A7070023A8F1BEEFE0DFC5AE
S2140147C4B7370A009387C78C2322F402832744024F
S2140147D423A8F1BEEFE05FC4EFE01FF7EFE09F8987
S2140147E48327440223A8F1BEEFE01FF6EFE09F887B
S2140147F48327440223A8F1BEEFE0DFC99304000037
S2140148049307F0FF232CF100130D0000930B000017
S2140148141304000023240100B7A70200938AC7BB30
S21401482493072000B38A574137A70200130A87BBB0
S214014834338A4741B7AD0200938D0D3893874D1CDB
S214014844232AF1006F10C04E13850400930504005B
S214014854EF1080706FF05FF4EFB05F96EFE0DFBBB0
S214014864EFE01FF7EFF04F889304050083A701BA22
S214014874638407006F10005603A701D7930710003F
S2140148846308F7001307100023A8E1D66F108054BD
S21401489423A801D66F10005423AA01D66F104056E0
S2140148A423AC01D66F10805823AE01D66F10C05AC0
S2140148B423A6E1BA93071000232CF10093076002A4
S2140148C46398F40E1307100023A6E1BA138C0500AF
S2140148D403C681BA13056002EFF01FD793073000B1
S2140148E4232CF100130B6002930750036398F41012
S2140148F403A7C1BA930710006308F70E9307B00124
S2140149046390F41603A7C1BA930710006304F70073
S2140149146F10C05F639C091213073005238AE1BA3E
S2140149241307200023A6E1BA6F10405E9307E00147
S214014934E396F4F81307100023A6E1BA13FBF40F69
S214014944138C050003C681BA13050B00EFF0DFCF05
S21401495493072000232CF10093072002E396F4F832
S21401496403A7C1BA930710006306F7069307C001AD
S214014974E396F4F803A7C1BA930710006302F70A93
S214014984930750016384F4006F10405803A7C1BA1B
S214014994930710006304F7006F10405713071005C0
S2140149A4238AE1BA1307200023A6E1BA6F10005642
S2140149B4032981016F10804E13078006238AE1BA0A
S2140149C41307200023A6E1BA6F104050232C2101BF
S2140149D46FF09FF813078007238AE1BA13072000B4
S2140149E423A6E1BA6FF09FF813079007238AE1BA6A
S2140149F41307200023A6E1BA6FF05FF003298101B3
S214014A046F10004D1307A007238AE1BA130720008D
S214014A1423A6E1BA6F10804D232C21016FF01FF5F8
S214014A24639C090013071004238AE1BA13072000C4
S214014A3423A6E1BA6FF0DFF41307A004238AE1BAD0
S214014A441305A004EF9000456FF05FFE1307B00452
S214014A54238AE1BA1305B004EF90C0436FF05FEC0C
S214014A64032981016F108048639C090013074004E1
S214014A74238AE1BA1307200023A6E1BA6F10C048BF
S214014A841307C004238AE1BA1305C004EF908040DB
S214014A946FF05FFE232C21016FF09FEE83A7C1BA4E
S214014AA4130720006384E7006F1080498327810180
S214014AB4639C070E83A641BC138701C31396260085
S214014AC43306C70003A5C1BC93172500B387A70007
S214014AD493972700938737022328F6143307D700C2
S214014AE483C741BB2308F7269386160023A2D1BCAD
S214014AF4639E090083A7C1BC9387170023A6F1BC54
S214014B04EFB0CFEB23A601BA6F10804383A781B61B
S214014B141307F00123A0E70037A50200130505BC1F
S214014B24EF90003203A7C1B893071000630CF70295
S214014B3403A781B8930710006304F70403A741B8D9
S214014B4493071000E318F7FA03A7C1BC131727004D
S214014B54938701C3B387E7001307400023A8E72A16
S214014B646FF05FF903A7C1BC13172700938701C32E
S214014B74B387E7001307200023A8E72A6FF05FFB3B
S214014B8403A7C1BC13172700938701C3B387E700A4
S214014B941307300023A8E72A37A50200130505BC2E
S214014BA4EF90002A6FF09FF9930710000327810105
S214014BB4630CF70683278101130720006386E71435
S214014BC493073000032781016304F7006F10403711
S214014BD403A6C1BB938701C393162600B386D700E9
S214014BE483A5C1BC130740013307B7021307370275
S214014BF423AEE618B387C70003C741BB2386E7186D
S214014C046390091E83A7C1BB9387170023AEF1BA2D
S214014C1483A7C1BC9387170023A6F1BCEFB00FDAB4
S214014C2423A601BA6F10C03103A781BC131727004E
S214014C34938701C3B387E70083A6C1BC130740016A
S214014C443307D7021307370223AAE720639C090216
S214014C5403A781BC938701C3B387E70003C641BB9F
S214014C642380C7261307170023A4E1BC83A7C1BC6E
S214014C749387170023A6F1BCEFB04FD423A601BA3D
S214014C846F10002C83A781B61307F00123A0E70059
S214014C9403A701B993071000630CF70203A781B8B1
S214014CA4930710006304F70403A741B893071000A1
S214014CB4E310F7FA03A7C1BC13172700938701C3B0
S214014CC4B387E7001307400023A8E72A6FF05FF8CD
S214014CD403A7C1BC13172700938701C3B387E70053
S214014CE41307100023A8E72A6FF05FFB03A7C1BCD4
S214014CF413172700938701C3B387E7001307300010
S214014D0423A8E72A6FF05FFA03A701BC938701C3C0
S214014D14131627003386C70003A5C1BC93064001BA
S214014D24B386A60293863602232CD61CB387E700E5
S214014D3483C641BB2388D7241307170023A0E1BCED
S214014D44639E090083A7C1BC9387170023A6F1BC01
S214014D54EFB0CFC623A601BA6F10801E83A781B613
S214014D641307F00123A0E70003A701B99307100076
S214014D74630CF70203A7C1B8930710006304F70492
S214014D8403A741B893071000E31EF7FA03A7C1BCB3
S214014D9413172700938701C3B387E700130740005F
S214014DA423A8E72A6FF01FFA03A7C1BC131727002D
S214014DB4938701C3B387E7001307100023A8E72AE4
S214014DC46FF05FFB03A7C1BC13172700938701C3CA
S214014DD4B387E7001307200023A8E72A6FF05FFADA
S214014DE483A781B61307F00123A0E70003A701B93F
S214014DF493071000630CF70203A7C1B893071000CA
S214014E046304F70403A781B893071000E31CF7DED5
S214014E1403A7C1BC13172700938701C3B387E70011
S214014E241307300023A8E72A6FF0DFDD03A7C1BC10
S214014E3413172700938701C3B387E70013071000EE
S214014E4423A8E72A6FF05FFB03A7C1BC131727004B
S214014E54938701C3B387E7001307200023A8E72A33
S214014E646FF05FFA1307100023A8E1BAEFB00FB58D
S214014E746F10C00DEFE00FE21307200023A8E1BA7C
S214014E84EFB0CFB36F10800CEFE0CFE023A801BAE8
S214014E94EFB0CFB2930400006F00800023AC01BAD8
S214014EA403A901BB6308091403A701BB93071000F8
S214014EB4E304F74283A701BB13072000E38CE74210
S214014EC493071000E386F444B70720FF83A48710F2
S214014ED49397040163D2070C13FBF40F8327810015
S214014EE49387D7FF93F7F70F1307600013A90B14E3
S214014EF46372F702832781009387F70093F7F70F0E
S214014F041307C000130900006366F7003329700114
S214014F14330920419307D4FF93F7F70F1307600073
S214014F2493290D0F637EF7009307F40093F7F70FA9
S214014F341307C000E360F748B329A001B309304161
S214014F44032681009305060037A50200130505BD57
S214014F54EF80106F13040B00B70720FF93878710A9
S214014F642324810013F4F40F83A407001397040188
S214014F74E34807FE9357F94133C727013307F74040
S214014F8493D6F941B3C73601B387D740E3D2E74690
S214014F9413192900B38B2B019307001463D47701EB
S214014FA4930B001493C7FBFF93D7F741B3FBFB00A6
S214014FB49307000F63D4A701130D000F9347FDFF5A
S214014FC493D7F741337DFD001306F0FF93050D00DB
S214014FD413850B00EFE08F8D83A701BB93041000AC
S214014FE4E3900754138B01D793099001130CC00760
S214014FF46F00104683A7C1BCE358F0EA138B01C3C4
S214015004930C0B2793090B15130B0B2B232661010A
S214015014130C0900B7A70200938707FE2328F100A3
S2140150246F00400313860D009305200503A50900B0
S214015034EFE09F82130C1C0083A7C1BC938C1C0059
S214015044938949000327C100130747002326E1007B
S214015054635EFC2683C70C009387F7FB13F7F70FF1
S21401506493069003E3E8E6FC931727000327010160
S214015074B387E70083A7070067800700032641017B
S2140150849305200503A50900EFE00FFD6FF09FFAD5
S21401509413868D389305200503A50900EFE0CFFBA1
S2140150A46FF05FF91386CD549305200503A5090017
S2140150B4EFE08FFA6FF01FF813860D719305200544
S2140150C403A50900EFE04FF96FF0DFF637B60200EB
S2140150D4130646C59305200503A50900EFE0CFF79F
S2140150E46FF05FF537B60200130686E193052005D7
S2140150F403A50900EFE04FF66FF0DFF3232E31012D
S21401510413860D719305200503A50900EFE0CFF47E
S2140151148327C10083A7070013072000638AE702D9
S214015124130730006384E70413074000E394E7F0B1
S2140151348327C10103A507001307F0FF9306200A7E
S2140151441306050093052005EFE08F956FF09FEE9B
S21401515403A509001307F0FF9306E00613060500EE
S21401516493052005EFE0CF936FF0DFEC8327C101B1
S21401517403A507001307F0FF9306A008130605000E
S21401518493052005EFE0CF916FF0DFEA232E31017E
S21401519437B60200130646C59305200503A5090084
S2140151A4EFE08FEB8327C10083A7070013072000D6
S2140151B4638AE702130730006384E7041307400099
S2140151C4E39AE7E68327C10103A507001307F0FF67
S2140151D49306200A1306050093052005EFE04F8C7D
S2140151E46FF05FE503A509001307F0FF9306E006D9
S2140151F41306050093052005EFE08F8A6FF09FE301
S2140152048327C10103A507001307F0FF9306A0082F
S2140152141306050093052005EFE08F886FF09FE1E4
S214015224232E310137B60200130686E193052005C5
S21401523403A50900EFE04FE28327C10083A7070017
S21401524413072000638AE702130730006384E70428
S21401525413074000E390E7DE8327C10103A5070097
S2140152641307007E9306200A1306050093052005FE
S214015274EFE00F836FF01FDC03A509001307007E20
S2140152849306E0061306050093052005EFE04F811B
S2140152946FF05FDA8327C10103A507001307007EB9
S2140152A49306A0081306050093052005EFD05FFFBB
S2140152B46FF05FD837660700130646369305200558
S2140152C403A50900EFF04FAE6FF0DFD6E35EF0BC46
S2140152D4938901C3938C0926938949212326610165
S2140152E4130C0900B7A702009387870C2328F10043
S2140152F46F00400313860D009305E00603A509001D
S214015304EFE08FD5130C1C0083A7C1BC938C1C0043
S214015314938949000327C100130747002326E100A8
S2140153246352FC2683C70C009387F7FB13F7F70F2A
S21401533493069003E3E8E6FC93172700032701018D
S214015344B387E70083A707006780070003264101A8
S2140153549305E00603A50900EFE00FD06FF09FFA6E
S21401536413868D389305E00603A50900EFE0CFCE3A
S2140153746FF05FF91386CD549305E00603A5090083
S214015384EFE08FCD6FF01FF813860D719305E006DD
S21401539403A50900EFE04FCC6FF0DFF637B6020045
S2140153A4130646C59305E00603A50900EFE0CFCA38
S2140153B46FF05FF537B60200130686E19305E00643
S2140153C403A50900EFE04FC96FF0DFF3232E310187
S2140153D413860D719305E00603A50900EFE0CFC718
S2140153E48327C10083A7070013071000638AE70217
S2140153F4130730006384E70413074000E394E7F0DF
S2140154048327C10103A507001307F0FF9306200AAB
S214015414130605009305E006EFD09FE86FF09FEEB4
S21401542403A509001307F0FF9306200513060500DC
S2140154349305E006EFD0DFE66FF0DFEC8327C101CA
S21401544403A507001307F0FF9306A008130605003B
S2140154549305E006EFD0DFE46FF0DFEA232E310197
S21401546437B60200130646C59305E00603A50900F0
S214015474EFE08FBE8327C10083A707001307100040
S214015484638AE702130730006384E70413074000C6
S214015494E39AE7E68327C10103A507001307F0FF94
S2140154A49306200A130605009305E006EFD05FDF96
S2140154B46FF05FE503A509001307F0FF93062005C7
S2140154C4130605009305E006EFD09FDD6FF09FE31A
S2140154D48327C10103A507001307F0FF9306A0085D
S2140154E4130605009305E006EFD09FDB6FF09FE1FE
S2140154F4232E310137B60200130686E19305E00632
S21401550403A50900EFE04FB58327C10083A7070071
S21401551413071000638AE702130730006384E70465
S21401552413074000E390E7DE8327C10103A50700C4
S2140155341307F0FF9306200A130605009305E006F9
S214015544EFD01FD66FF01FDC03A509001307F0FF89
S21401555493062005130605009305E006EFD05FD4F5
S2140155646FF05FDA8327C10103A507001307F0FF75
S2140155749306A008130605009305E006EFD05FD254
S2140155846FF05FD8E352F092938901C3938C092597
S2140155949389891D23266101130C0900B7A702000C
S2140155A49387071B2328F1006F00400313860D0021
S2140155B49305A00803A50900EFE00FAA130C1C002D
S2140155C483A7C1BC938C1C00938949000327C1009F
S2140155D4130747002326E1006352FC2683C70C0009
S2140155E49387F7FB13F7F70F93069003E3E8E6FCBC
S2140155F49317270003270101B387E70083A7070052
S21401560467800700032641019305A00803A5090046
S214015614EFE08FA46FF09FFA13868D389305A008E8
S21401562403A50900EFE04FA36FF05FF91386CD548D
S2140156349305A00803A50900EFE00FA26FF01FF879
S21401564413860D719305A00803A50900EFE0CFA00A
S2140156546FF0DFF637B60200130646C59305A008B9
S21401566403A50900EFE04F9F6FF05FF537B6020020
S214015674130686E19305A00803A50900EFE0CF9D74
S2140156846FF0DFF3232E310113860D719305A00805
S21401569403A50900EFE04F9C8327C10083A70700F9
S2140156A413071000638AE702130720006384E704E4
S2140156B413074000E394E7F08327C10103A507001D
S2140156C41307F0FF9306200A130605009305A008A6
S2140156D4EFD01FBD6FF09FEE03A509001307F0FF7F
S2140156E493062005130605009305A008EFD05FBBBB
S2140156F46FF0DFEC8327C10103A507001307F0FF52
S2140157049306E006130605009305A008EFD05FB9DB
S2140157146FF0DFEA232E310137B60200130646C5C1
S2140157249305A00803A50900EFE00F938327C100A2
S21401573483A7070013071000638AE70213072000F4
S2140157446384E70413074000E39AE7E68327C1016D
S21401575403A507001307F0FF9306200A13060500A6
S2140157649305A008EFD0DFB36FF05FE503A509004A
S2140157741307F0FF93062005130605009305A008FA
S214015784EFD01FB26FF09FE38327C10103A5070083
S2140157941307F0FF9306E006130605009305A00819
S2140157A4EFD01FB06FF09FE1232E310137B6020010
S2140157B4130686E19305A00803A50900EFE0CF8947
S2140157C48327C10083A7070013071000638AE70233
S2140157D4130720006384E70413074000E390E7DE21
S2140157E48327C10103A507001307F0FF9306200AC8
S2140157F4130605009305A008EFD09FAA6FF01FDCDF
S21401580403A509001307F0FF9306200513060500F8
S2140158149305A008EFD0DFA86FF05FDA8327C101F4
S21401582403A507001307F0FF9306E0061306050019
S2140158349305A008EFD0DFA66FF05FD86356F0E6B5
S214015844938901C3138CC9189389C919B7A7020090
S214015854938787292326F1006F00C00213860D0063
S2140158649305200A03A50900EFD01FFF13091900A9
S214015874130C1C0093894900130B4B0083A7C1BC6E
S2140158846354F9E283470C009387F7FB13F7F70F8A
S21401589493069003E3ECE6FC931727000327C10065
S2140158A4B387E70083A70700678007000326410143
S2140158B49305200A03A50900EFD01FFA6FF01FFB1A
S2140158C413868D389305200A03A50900EFD0DFF867
S2140158D46FF0DFF91386CD549305200A03A509005A
S2140158E4EFD09FF76FF09FF813860D719305200A8A
S2140158F403A50900EFD05FF66FF05FF737B6020035
S214015904130646C59305200A03A50900EFD0DFF464
S2140159146FF0DFF537B60200130686E19305200A19
S21401592403A50900EFD05FF36FF05FF4232831017C
S21401593413860D719305200A03A50900EFD0DFF144
S21401594483270B0013071000638AE702130720005E
S2140159546384E70413073000E39AE7F08327010121
